{
  "_format": "hh-sol-artifact-1",
  "contractName": "Transactions",
  "sourceName": "contracts/Transactions.sol",
  "abi": [
    {
      "inputs": [],
      "stateMutability": "nonpayable",
      "type": "constructor"
    },
    {
      "anonymous": false,
      "inputs": [
        {
          "indexed": true,
          "internalType": "address",
          "name": "owner",
          "type": "address"
        },
        {
          "indexed": true,
          "internalType": "address",
          "name": "spender",
          "type": "address"
        },
        {
          "indexed": false,
          "internalType": "uint256",
          "name": "value",
          "type": "uint256"
        }
      ],
      "name": "Approval",
      "type": "event"
    },
    {
      "anonymous": false,
      "inputs": [
        {
          "indexed": true,
          "internalType": "address",
          "name": "transactionBy",
          "type": "address"
        },
        {
          "indexed": false,
          "internalType": "uint256",
          "name": "currentBalance",
          "type": "uint256"
        },
        {
          "indexed": false,
          "internalType": "uint256",
          "name": "mintableLeft",
          "type": "uint256"
        },
        {
          "indexed": false,
          "internalType": "uint256",
          "name": "transactionDate",
          "type": "uint256"
        }
      ],
      "name": "TransactionComplete",
      "type": "event"
    },
    {
      "anonymous": false,
      "inputs": [
        {
          "indexed": true,
          "internalType": "address",
          "name": "from",
          "type": "address"
        },
        {
          "indexed": true,
          "internalType": "address",
          "name": "to",
          "type": "address"
        },
        {
          "indexed": false,
          "internalType": "uint256",
          "name": "value",
          "type": "uint256"
        }
      ],
      "name": "Transfer",
      "type": "event"
    },
    {
      "inputs": [
        {
          "internalType": "address",
          "name": "owner",
          "type": "address"
        },
        {
          "internalType": "address",
          "name": "spender",
          "type": "address"
        }
      ],
      "name": "allowance",
      "outputs": [
        {
          "internalType": "uint256",
          "name": "",
          "type": "uint256"
        }
      ],
      "stateMutability": "view",
      "type": "function"
    },
    {
      "inputs": [
        {
          "internalType": "address",
          "name": "spender",
          "type": "address"
        },
        {
          "internalType": "uint256",
          "name": "amount",
          "type": "uint256"
        }
      ],
      "name": "approve",
      "outputs": [
        {
          "internalType": "bool",
          "name": "",
          "type": "bool"
        }
      ],
      "stateMutability": "nonpayable",
      "type": "function"
    },
    {
      "inputs": [
        {
          "internalType": "address",
          "name": "account",
          "type": "address"
        }
      ],
      "name": "balanceOf",
      "outputs": [
        {
          "internalType": "uint256",
          "name": "",
          "type": "uint256"
        }
      ],
      "stateMutability": "view",
      "type": "function"
    },
    {
      "inputs": [],
      "name": "countOfMintableCoins",
      "outputs": [
        {
          "internalType": "uint256",
          "name": "",
          "type": "uint256"
        }
      ],
      "stateMutability": "view",
      "type": "function"
    },
    {
      "inputs": [],
      "name": "decimals",
      "outputs": [
        {
          "internalType": "uint8",
          "name": "",
          "type": "uint8"
        }
      ],
      "stateMutability": "view",
      "type": "function"
    },
    {
      "inputs": [
        {
          "internalType": "address",
          "name": "spender",
          "type": "address"
        },
        {
          "internalType": "uint256",
          "name": "subtractedValue",
          "type": "uint256"
        }
      ],
      "name": "decreaseAllowance",
      "outputs": [
        {
          "internalType": "bool",
          "name": "",
          "type": "bool"
        }
      ],
      "stateMutability": "nonpayable",
      "type": "function"
    },
    {
      "inputs": [
        {
          "internalType": "address",
          "name": "spender",
          "type": "address"
        },
        {
          "internalType": "uint256",
          "name": "addedValue",
          "type": "uint256"
        }
      ],
      "name": "increaseAllowance",
      "outputs": [
        {
          "internalType": "bool",
          "name": "",
          "type": "bool"
        }
      ],
      "stateMutability": "nonpayable",
      "type": "function"
    },
    {
      "inputs": [],
      "name": "mint",
      "outputs": [],
      "stateMutability": "payable",
      "type": "function"
    },
    {
      "inputs": [],
      "name": "name",
      "outputs": [
        {
          "internalType": "string",
          "name": "",
          "type": "string"
        }
      ],
      "stateMutability": "view",
      "type": "function"
    },
    {
      "inputs": [],
      "name": "owner",
      "outputs": [
        {
          "internalType": "address",
          "name": "",
          "type": "address"
        }
      ],
      "stateMutability": "view",
      "type": "function"
    },
    {
      "inputs": [],
      "name": "returnBalance",
      "outputs": [
        {
          "internalType": "uint256",
          "name": "",
          "type": "uint256"
        }
      ],
      "stateMutability": "view",
      "type": "function"
    },
    {
      "inputs": [
        {
          "internalType": "uint256",
          "name": "amountToSellBack",
          "type": "uint256"
        }
      ],
      "name": "sellBack",
      "outputs": [],
      "stateMutability": "nonpayable",
      "type": "function"
    },
    {
      "inputs": [],
      "name": "symbol",
      "outputs": [
        {
          "internalType": "string",
          "name": "",
          "type": "string"
        }
      ],
      "stateMutability": "view",
      "type": "function"
    },
    {
      "inputs": [],
      "name": "totalSupply",
      "outputs": [
        {
          "internalType": "uint256",
          "name": "",
          "type": "uint256"
        }
      ],
      "stateMutability": "view",
      "type": "function"
    },
    {
      "inputs": [
        {
          "internalType": "address",
          "name": "to",
          "type": "address"
        },
        {
          "internalType": "uint256",
          "name": "amount",
          "type": "uint256"
        }
      ],
      "name": "transfer",
      "outputs": [
        {
          "internalType": "bool",
          "name": "",
          "type": "bool"
        }
      ],
      "stateMutability": "nonpayable",
      "type": "function"
    },
    {
      "inputs": [
        {
          "internalType": "address",
          "name": "from",
          "type": "address"
        },
        {
          "internalType": "address",
          "name": "to",
          "type": "address"
        },
        {
          "internalType": "uint256",
          "name": "amount",
          "type": "uint256"
        }
      ],
      "name": "transferFrom",
      "outputs": [
        {
          "internalType": "bool",
          "name": "",
          "type": "bool"
        }
      ],
      "stateMutability": "view",
      "type": "function"
    }
  ],
  "bytecode": "0x60806040523480156200001157600080fd5b506040518060400160405280600881526020017f57616c6d617274580000000000000000000000000000000000000000000000008152506040518060400160405280600381526020017f574d5800000000000000000000000000000000000000000000000000000000008152508160039080519060200190620000969291906200010a565b508060049080519060200190620000af9291906200010a565b50505033600560006101000a81548173ffffffffffffffffffffffffffffffffffffffff021916908373ffffffffffffffffffffffffffffffffffffffff16021790555061271060068190555060056007819055506200021f565b8280546200011890620001e9565b90600052602060002090601f0160209004810192826200013c576000855562000188565b82601f106200015757805160ff191683800117855562000188565b8280016001018555821562000188579182015b82811115620001875782518255916020019190600101906200016a565b5b5090506200019791906200019b565b5090565b5b80821115620001b65760008160009055506001016200019c565b5090565b7f4e487b7100000000000000000000000000000000000000000000000000000000600052602260045260246000fd5b600060028204905060018216806200020257607f821691505b60208210811415620002195762000218620001ba565b5b50919050565b611f9b806200022f6000396000f3fe6080604052600436106100f35760003560e01c806370a082311161008a578063a457c2d711610059578063a457c2d714610323578063a9059cbb14610360578063ad5d4bc51461039d578063dd62ed3e146103c6576100f3565b806370a08231146102655780638da5cb5b146102a2578063900551a8146102cd57806395d89b41146102f8576100f3565b806323b872dd116100c657806323b872dd14610195578063313ce567146101d2578063343aa2bc146101fd5780633950935114610228576100f3565b806306fdde03146100f8578063095ea7b3146101235780631249c58b1461016057806318160ddd1461016a575b600080fd5b34801561010457600080fd5b5061010d610403565b60405161011a9190611303565b60405180910390f35b34801561012f57600080fd5b5061014a600480360381019061014591906113be565b610495565b6040516101579190611419565b60405180910390f35b6101686104b8565b005b34801561017657600080fd5b5061017f610667565b60405161018c9190611443565b60405180910390f35b3480156101a157600080fd5b506101bc60048036038101906101b7919061145e565b610671565b6040516101c99190611419565b60405180910390f35b3480156101de57600080fd5b506101e76106be565b6040516101f491906114cd565b60405180910390f35b34801561020957600080fd5b506102126106c3565b60405161021f9190611443565b60405180910390f35b34801561023457600080fd5b5061024f600480360381019061024a91906113be565b6106df565b60405161025c9190611419565b60405180910390f35b34801561027157600080fd5b5061028c600480360381019061028791906114e8565b610716565b6040516102999190611443565b60405180910390f35b3480156102ae57600080fd5b506102b761075e565b6040516102c49190611524565b60405180910390f35b3480156102d957600080fd5b506102e2610784565b6040516102ef9190611443565b60405180910390f35b34801561030457600080fd5b5061030d61081c565b60405161031a9190611303565b60405180910390f35b34801561032f57600080fd5b5061034a600480360381019061034591906113be565b6108ae565b6040516103579190611419565b60405180910390f35b34801561036c57600080fd5b50610387600480360381019061038291906113be565b610925565b6040516103949190611419565b60405180910390f35b3480156103a957600080fd5b506103c460048036038101906103bf919061153f565b610948565b005b3480156103d257600080fd5b506103ed60048036038101906103e8919061156c565b610a4e565b6040516103fa9190611443565b60405180910390f35b606060038054610412906115db565b80601f016020809104026020016040519081016040528092919081815260200182805461043e906115db565b801561048b5780601f106104605761010080835404028352916020019161048b565b820191906000526020600020905b81548152906001019060200180831161046e57829003601f168201915b5050505050905090565b6000806104a0610ad5565b90506104ad818585610add565b600191505092915050565b60006001905080341015610501576040517f08c379a00000000000000000000000000000000000000000000000000000000081526004016104f890611659565b60405180910390fd5b60065461050c610667565b111561054d576040517f08c379a0000000000000000000000000000000000000000000000000000000008152600401610544906116eb565b60405180910390fd5b6007543461055a33610716565b610564919061173a565b11156105f95760003390508073ffffffffffffffffffffffffffffffffffffffff166108fc349081150290604051600060405180830381858888f193505050501580156105b5573d6000803e3d6000fd5b5060006105f7576040517f08c379a00000000000000000000000000000000000000000000000000000000081526004016105ee90611828565b60405180910390fd5b505b6106033334610ca8565b3373ffffffffffffffffffffffffffffffffffffffff167fd7cbc48790f3eba165086a3346f6aad6b0f80442ed16cf764f06b8e08c557e8661064433610716565b61064c6106c3565b4260405161065c93929190611848565b60405180910390a250565b6000600254905090565b6000806106b3576040517f08c379a00000000000000000000000000000000000000000000000000000000081526004016106aa906118f1565b60405180910390fd5b600090509392505050565b600090565b60006106cd610667565b6006546106da9190611911565b905090565b6000806106ea610ad5565b905061070b8185856106fc8589610a4e565b610706919061173a565b610add565b600191505092915050565b60008060008373ffffffffffffffffffffffffffffffffffffffff1673ffffffffffffffffffffffffffffffffffffffff168152602001908152602001600020549050919050565b600560009054906101000a900473ffffffffffffffffffffffffffffffffffffffff1681565b6000600560009054906101000a900473ffffffffffffffffffffffffffffffffffffffff1673ffffffffffffffffffffffffffffffffffffffff163373ffffffffffffffffffffffffffffffffffffffff1614610816576040517f08c379a000000000000000000000000000000000000000000000000000000000815260040161080d906119b7565b60405180910390fd5b47905090565b60606004805461082b906115db565b80601f0160208091040260200160405190810160405280929190818152602001828054610857906115db565b80156108a45780601f10610879576101008083540402835291602001916108a4565b820191906000526020600020905b81548152906001019060200180831161088757829003601f168201915b5050505050905090565b6000806108b9610ad5565b905060006108c78286610a4e565b90508381101561090c576040517f08c379a000000000000000000000000000000000000000000000000000000000815260040161090390611a49565b60405180910390fd5b6109198286868403610add565b60019250505092915050565b600080610930610ad5565b905061093d818585610e08565b600191505092915050565b8061095233610716565b1015610993576040517f08c379a000000000000000000000000000000000000000000000000000000000815260040161098a90611adb565b60405180910390fd5b61099d3382611089565b60003390508073ffffffffffffffffffffffffffffffffffffffff166108fc839081150290604051600060405180830381858888f193505050501580156109e8573d6000803e3d6000fd5b503373ffffffffffffffffffffffffffffffffffffffff167fd7cbc48790f3eba165086a3346f6aad6b0f80442ed16cf764f06b8e08c557e86610a2a33610716565b610a326106c3565b42604051610a4293929190611848565b60405180910390a25050565b6000600160008473ffffffffffffffffffffffffffffffffffffffff1673ffffffffffffffffffffffffffffffffffffffff16815260200190815260200160002060008373ffffffffffffffffffffffffffffffffffffffff1673ffffffffffffffffffffffffffffffffffffffff16815260200190815260200160002054905092915050565b600033905090565b600073ffffffffffffffffffffffffffffffffffffffff168373ffffffffffffffffffffffffffffffffffffffff161415610b4d576040517f08c379a0000000000000000000000000000000000000000000000000000000008152600401610b4490611b6d565b60405180910390fd5b600073ffffffffffffffffffffffffffffffffffffffff168273ffffffffffffffffffffffffffffffffffffffff161415610bbd576040517f08c379a0000000000000000000000000000000000000000000000000000000008152600401610bb490611bff565b60405180910390fd5b80600160008573ffffffffffffffffffffffffffffffffffffffff1673ffffffffffffffffffffffffffffffffffffffff16815260200190815260200160002060008473ffffffffffffffffffffffffffffffffffffffff1673ffffffffffffffffffffffffffffffffffffffff168152602001908152602001600020819055508173ffffffffffffffffffffffffffffffffffffffff168373ffffffffffffffffffffffffffffffffffffffff167f8c5be1e5ebec7d5bd14f71427d1e84f3dd0314c0f7b2291e5b200ac8c7c3b92583604051610c9b9190611443565b60405180910390a3505050565b600073ffffffffffffffffffffffffffffffffffffffff168273ffffffffffffffffffffffffffffffffffffffff161415610d18576040517f08c379a0000000000000000000000000000000000000000000000000000000008152600401610d0f90611c6b565b60405180910390fd5b610d2460008383611260565b8060026000828254610d36919061173a565b92505081905550806000808473ffffffffffffffffffffffffffffffffffffffff1673ffffffffffffffffffffffffffffffffffffffff1681526020019081526020016000206000828254610d8b919061173a565b925050819055508173ffffffffffffffffffffffffffffffffffffffff16600073ffffffffffffffffffffffffffffffffffffffff167fddf252ad1be2c89b69c2b068fc378daa952ba7f163c4a11628f55a4df523b3ef83604051610df09190611443565b60405180910390a3610e0460008383611265565b5050565b600073ffffffffffffffffffffffffffffffffffffffff168373ffffffffffffffffffffffffffffffffffffffff161415610e78576040517f08c379a0000000000000000000000000000000000000000000000000000000008152600401610e6f90611cfd565b60405180910390fd5b600073ffffffffffffffffffffffffffffffffffffffff168273ffffffffffffffffffffffffffffffffffffffff161415610ee8576040517f08c379a0000000000000000000000000000000000000000000000000000000008152600401610edf90611d8f565b60405180910390fd5b610ef3838383611260565b60008060008573ffffffffffffffffffffffffffffffffffffffff1673ffffffffffffffffffffffffffffffffffffffff16815260200190815260200160002054905081811015610f79576040517f08c379a0000000000000000000000000000000000000000000000000000000008152600401610f7090611e21565b60405180910390fd5b8181036000808673ffffffffffffffffffffffffffffffffffffffff1673ffffffffffffffffffffffffffffffffffffffff16815260200190815260200160002081905550816000808573ffffffffffffffffffffffffffffffffffffffff1673ffffffffffffffffffffffffffffffffffffffff168152602001908152602001600020600082825461100c919061173a565b925050819055508273ffffffffffffffffffffffffffffffffffffffff168473ffffffffffffffffffffffffffffffffffffffff167fddf252ad1be2c89b69c2b068fc378daa952ba7f163c4a11628f55a4df523b3ef846040516110709190611443565b60405180910390a3611083848484611265565b50505050565b600073ffffffffffffffffffffffffffffffffffffffff168273ffffffffffffffffffffffffffffffffffffffff1614156110f9576040517f08c379a00000000000000000000000000000000000000000000000000000000081526004016110f090611eb3565b60405180910390fd5b61110582600083611260565b60008060008473ffffffffffffffffffffffffffffffffffffffff1673ffffffffffffffffffffffffffffffffffffffff1681526020019081526020016000205490508181101561118b576040517f08c379a000000000000000000000000000000000000000000000000000000000815260040161118290611f45565b60405180910390fd5b8181036000808573ffffffffffffffffffffffffffffffffffffffff1673ffffffffffffffffffffffffffffffffffffffff1681526020019081526020016000208190555081600260008282546111e29190611911565b92505081905550600073ffffffffffffffffffffffffffffffffffffffff168373ffffffffffffffffffffffffffffffffffffffff167fddf252ad1be2c89b69c2b068fc378daa952ba7f163c4a11628f55a4df523b3ef846040516112479190611443565b60405180910390a361125b83600084611265565b505050565b505050565b505050565b600081519050919050565b600082825260208201905092915050565b60005b838110156112a4578082015181840152602081019050611289565b838111156112b3576000848401525b50505050565b6000601f19601f8301169050919050565b60006112d58261126a565b6112df8185611275565b93506112ef818560208601611286565b6112f8816112b9565b840191505092915050565b6000602082019050818103600083015261131d81846112ca565b905092915050565b600080fd5b600073ffffffffffffffffffffffffffffffffffffffff82169050919050565b60006113558261132a565b9050919050565b6113658161134a565b811461137057600080fd5b50565b6000813590506113828161135c565b92915050565b6000819050919050565b61139b81611388565b81146113a657600080fd5b50565b6000813590506113b881611392565b92915050565b600080604083850312156113d5576113d4611325565b5b60006113e385828601611373565b92505060206113f4858286016113a9565b9150509250929050565b60008115159050919050565b611413816113fe565b82525050565b600060208201905061142e600083018461140a565b92915050565b61143d81611388565b82525050565b60006020820190506114586000830184611434565b92915050565b60008060006060848603121561147757611476611325565b5b600061148586828701611373565b935050602061149686828701611373565b92505060406114a7868287016113a9565b9150509250925092565b600060ff82169050919050565b6114c7816114b1565b82525050565b60006020820190506114e260008301846114be565b92915050565b6000602082840312156114fe576114fd611325565b5b600061150c84828501611373565b91505092915050565b61151e8161134a565b82525050565b60006020820190506115396000830184611515565b92915050565b60006020828403121561155557611554611325565b5b6000611563848285016113a9565b91505092915050565b6000806040838503121561158357611582611325565b5b600061159185828601611373565b92505060206115a285828601611373565b9150509250929050565b7f4e487b7100000000000000000000000000000000000000000000000000000000600052602260045260246000fd5b600060028204905060018216806115f357607f821691505b60208210811415611607576116066115ac565b5b50919050565b7f456e6f75676820455448206e6f742073656e7421000000000000000000000000600082015250565b6000611643601483611275565b915061164e8261160d565b602082019050919050565b6000602082019050818103600083015261167281611636565b9050919050565b7f4e6f204d6f72652057616c6d6172745820636f696e732063616e206265206d6960008201527f6e65642100000000000000000000000000000000000000000000000000000000602082015250565b60006116d5602483611275565b91506116e082611679565b604082019050919050565b60006020820190508181036000830152611704816116c8565b9050919050565b7f4e487b7100000000000000000000000000000000000000000000000000000000600052601160045260246000fd5b600061174582611388565b915061175083611388565b9250827fffffffffffffffffffffffffffffffffffffffffffffffffffffffffffffffff038211156117855761178461170b565b5b828201905092915050565b7f596f752063616e6e6f7420616464207468657365206d616e7920636f696e732060008201527f746f20796f752077616c6c657421204574682069732072657475726e6564207460208201527f6f20796f7572206163636f756e74210000000000000000000000000000000000604082015250565b6000611812604f83611275565b915061181d82611790565b606082019050919050565b6000602082019050818103600083015261184181611805565b9050919050565b600060608201905061185d6000830186611434565b61186a6020830185611434565b6118776040830184611434565b949350505050565b7f546869732066756e6374696f6e206f6620455243323020686173206265656e2060008201527f64697361626c656420766961206f766572726964652100000000000000000000602082015250565b60006118db603683611275565b91506118e68261187f565b604082019050919050565b6000602082019050818103600083015261190a816118ce565b9050919050565b600061191c82611388565b915061192783611388565b92508282101561193a5761193961170b565b5b828203905092915050565b7f4f6e6c79206f776e65722063616e2061636365737320746869732066756e637460008201527f696f6e2100000000000000000000000000000000000000000000000000000000602082015250565b60006119a1602483611275565b91506119ac82611945565b604082019050919050565b600060208201905081810360008301526119d081611994565b9050919050565b7f45524332303a2064656372656173656420616c6c6f77616e63652062656c6f7760008201527f207a65726f000000000000000000000000000000000000000000000000000000602082015250565b6000611a33602583611275565b9150611a3e826119d7565b604082019050919050565b60006020820190508181036000830152611a6281611a26565b9050919050565b7f496e73756666696369656e742062616c616e6365206f6620574d5820746f207360008201527f656c6c206261636b210000000000000000000000000000000000000000000000602082015250565b6000611ac5602983611275565b9150611ad082611a69565b604082019050919050565b60006020820190508181036000830152611af481611ab8565b9050919050565b7f45524332303a20617070726f76652066726f6d20746865207a65726f2061646460008201527f7265737300000000000000000000000000000000000000000000000000000000602082015250565b6000611b57602483611275565b9150611b6282611afb565b604082019050919050565b60006020820190508181036000830152611b8681611b4a565b9050919050565b7f45524332303a20617070726f766520746f20746865207a65726f20616464726560008201527f7373000000000000000000000000000000000000000000000000000000000000602082015250565b6000611be9602283611275565b9150611bf482611b8d565b604082019050919050565b60006020820190508181036000830152611c1881611bdc565b9050919050565b7f45524332303a206d696e7420746f20746865207a65726f206164647265737300600082015250565b6000611c55601f83611275565b9150611c6082611c1f565b602082019050919050565b60006020820190508181036000830152611c8481611c48565b9050919050565b7f45524332303a207472616e736665722066726f6d20746865207a65726f20616460008201527f6472657373000000000000000000000000000000000000000000000000000000602082015250565b6000611ce7602583611275565b9150611cf282611c8b565b604082019050919050565b60006020820190508181036000830152611d1681611cda565b9050919050565b7f45524332303a207472616e7366657220746f20746865207a65726f206164647260008201527f6573730000000000000000000000000000000000000000000000000000000000602082015250565b6000611d79602383611275565b9150611d8482611d1d565b604082019050919050565b60006020820190508181036000830152611da881611d6c565b9050919050565b7f45524332303a207472616e7366657220616d6f756e742065786365656473206260008201527f616c616e63650000000000000000000000000000000000000000000000000000602082015250565b6000611e0b602683611275565b9150611e1682611daf565b604082019050919050565b60006020820190508181036000830152611e3a81611dfe565b9050919050565b7f45524332303a206275726e2066726f6d20746865207a65726f2061646472657360008201527f7300000000000000000000000000000000000000000000000000000000000000602082015250565b6000611e9d602183611275565b9150611ea882611e41565b604082019050919050565b60006020820190508181036000830152611ecc81611e90565b9050919050565b7f45524332303a206275726e20616d6f756e7420657863656564732062616c616e60008201527f6365000000000000000000000000000000000000000000000000000000000000602082015250565b6000611f2f602283611275565b9150611f3a82611ed3565b604082019050919050565b60006020820190508181036000830152611f5e81611f22565b905091905056fea2646970667358221220255443584a451d05d45cf452abdba62ec78a0b831ccb99e427d01536ceb96a8164736f6c63430008090033",
  "linkReferences": {},
  "deployedLinkReferences": {}
}