{
  "_format": "hh-sol-artifact-1",
  "contractName": "Transactions",
  "sourceName": "contracts/Transactions.sol",
  "abi": [
    {
      "inputs": [],
      "stateMutability": "nonpayable",
      "type": "constructor"
    },
    {
      "anonymous": false,
      "inputs": [
        {
          "indexed": true,
          "internalType": "address",
          "name": "owner",
          "type": "address"
        },
        {
          "indexed": true,
          "internalType": "address",
          "name": "spender",
          "type": "address"
        },
        {
          "indexed": false,
          "internalType": "uint256",
          "name": "value",
          "type": "uint256"
        }
      ],
      "name": "Approval",
      "type": "event"
    },
    {
      "anonymous": false,
      "inputs": [
        {
          "indexed": true,
          "internalType": "address",
          "name": "from",
          "type": "address"
        },
        {
          "indexed": true,
          "internalType": "address",
          "name": "to",
          "type": "address"
        },
        {
          "indexed": false,
          "internalType": "uint256",
          "name": "value",
          "type": "uint256"
        }
      ],
      "name": "Transfer",
      "type": "event"
    },
    {
      "inputs": [
        {
          "internalType": "address",
          "name": "owner",
          "type": "address"
        },
        {
          "internalType": "address",
          "name": "spender",
          "type": "address"
        }
      ],
      "name": "allowance",
      "outputs": [
        {
          "internalType": "uint256",
          "name": "",
          "type": "uint256"
        }
      ],
      "stateMutability": "view",
      "type": "function"
    },
    {
      "inputs": [
        {
          "internalType": "address",
          "name": "spender",
          "type": "address"
        },
        {
          "internalType": "uint256",
          "name": "amount",
          "type": "uint256"
        }
      ],
      "name": "approve",
      "outputs": [
        {
          "internalType": "bool",
          "name": "",
          "type": "bool"
        }
      ],
      "stateMutability": "nonpayable",
      "type": "function"
    },
    {
      "inputs": [
        {
          "internalType": "address",
          "name": "account",
          "type": "address"
        }
      ],
      "name": "balanceOf",
      "outputs": [
        {
          "internalType": "uint256",
          "name": "",
          "type": "uint256"
        }
      ],
      "stateMutability": "view",
      "type": "function"
    },
    {
      "inputs": [],
      "name": "countOfMintableCoins",
      "outputs": [
        {
          "internalType": "uint256",
          "name": "",
          "type": "uint256"
        }
      ],
      "stateMutability": "view",
      "type": "function"
    },
    {
      "inputs": [],
      "name": "decimals",
      "outputs": [
        {
          "internalType": "uint8",
          "name": "",
          "type": "uint8"
        }
      ],
      "stateMutability": "view",
      "type": "function"
    },
    {
      "inputs": [
        {
          "internalType": "address",
          "name": "spender",
          "type": "address"
        },
        {
          "internalType": "uint256",
          "name": "subtractedValue",
          "type": "uint256"
        }
      ],
      "name": "decreaseAllowance",
      "outputs": [
        {
          "internalType": "bool",
          "name": "",
          "type": "bool"
        }
      ],
      "stateMutability": "nonpayable",
      "type": "function"
    },
    {
      "inputs": [
        {
          "internalType": "address",
          "name": "spender",
          "type": "address"
        },
        {
          "internalType": "uint256",
          "name": "addedValue",
          "type": "uint256"
        }
      ],
      "name": "increaseAllowance",
      "outputs": [
        {
          "internalType": "bool",
          "name": "",
          "type": "bool"
        }
      ],
      "stateMutability": "nonpayable",
      "type": "function"
    },
    {
      "inputs": [],
      "name": "mint",
      "outputs": [],
      "stateMutability": "payable",
      "type": "function"
    },
    {
      "inputs": [],
      "name": "name",
      "outputs": [
        {
          "internalType": "string",
          "name": "",
          "type": "string"
        }
      ],
      "stateMutability": "view",
      "type": "function"
    },
    {
      "inputs": [],
      "name": "owner",
      "outputs": [
        {
          "internalType": "address",
          "name": "",
          "type": "address"
        }
      ],
      "stateMutability": "view",
      "type": "function"
    },
    {
      "inputs": [],
      "name": "returnBalance",
      "outputs": [
        {
          "internalType": "uint256",
          "name": "",
          "type": "uint256"
        }
      ],
      "stateMutability": "view",
      "type": "function"
    },
    {
      "inputs": [
        {
          "internalType": "uint256",
          "name": "amountToSellBack",
          "type": "uint256"
        }
      ],
      "name": "sellBack",
      "outputs": [],
      "stateMutability": "nonpayable",
      "type": "function"
    },
    {
      "inputs": [],
      "name": "symbol",
      "outputs": [
        {
          "internalType": "string",
          "name": "",
          "type": "string"
        }
      ],
      "stateMutability": "view",
      "type": "function"
    },
    {
      "inputs": [],
      "name": "totalSupply",
      "outputs": [
        {
          "internalType": "uint256",
          "name": "",
          "type": "uint256"
        }
      ],
      "stateMutability": "view",
      "type": "function"
    },
    {
      "inputs": [
        {
          "internalType": "address",
          "name": "to",
          "type": "address"
        },
        {
          "internalType": "uint256",
          "name": "amount",
          "type": "uint256"
        }
      ],
      "name": "transfer",
      "outputs": [
        {
          "internalType": "bool",
          "name": "",
          "type": "bool"
        }
      ],
      "stateMutability": "nonpayable",
      "type": "function"
    },
    {
      "inputs": [
        {
          "internalType": "address",
          "name": "from",
          "type": "address"
        },
        {
          "internalType": "address",
          "name": "to",
          "type": "address"
        },
        {
          "internalType": "uint256",
          "name": "amount",
          "type": "uint256"
        }
      ],
      "name": "transferFrom",
      "outputs": [
        {
          "internalType": "bool",
          "name": "",
          "type": "bool"
        }
      ],
      "stateMutability": "view",
      "type": "function"
    }
  ],
  "bytecode": "0x60806040523480156200001157600080fd5b506040518060400160405280600881526020017f57616c6d617274580000000000000000000000000000000000000000000000008152506040518060400160405280600381526020017f574d5800000000000000000000000000000000000000000000000000000000008152508160039080519060200190620000969291906200010a565b508060049080519060200190620000af9291906200010a565b50505033600560006101000a81548173ffffffffffffffffffffffffffffffffffffffff021916908373ffffffffffffffffffffffffffffffffffffffff16021790555061271060068190555060056007819055506200021f565b8280546200011890620001e9565b90600052602060002090601f0160209004810192826200013c576000855562000188565b82601f106200015757805160ff191683800117855562000188565b8280016001018555821562000188579182015b82811115620001875782518255916020019190600101906200016a565b5b5090506200019791906200019b565b5090565b5b80821115620001b65760008160009055506001016200019c565b5090565b7f4e487b7100000000000000000000000000000000000000000000000000000000600052602260045260246000fd5b600060028204905060018216806200020257607f821691505b60208210811415620002195762000218620001ba565b5b50919050565b611e44806200022f6000396000f3fe6080604052600436106100f35760003560e01c806370a082311161008a578063a457c2d711610059578063a457c2d714610323578063a9059cbb14610360578063ad5d4bc51461039d578063dd62ed3e146103c6576100f3565b806370a08231146102655780638da5cb5b146102a2578063900551a8146102cd57806395d89b41146102f8576100f3565b806323b872dd116100c657806323b872dd14610195578063313ce567146101d2578063343aa2bc146101fd5780633950935114610228576100f3565b806306fdde03146100f8578063095ea7b3146101235780631249c58b1461016057806318160ddd1461016a575b600080fd5b34801561010457600080fd5b5061010d610403565b60405161011a91906111e3565b60405180910390f35b34801561012f57600080fd5b5061014a6004803603810190610145919061129e565b610495565b60405161015791906112f9565b60405180910390f35b6101686104b8565b005b34801561017657600080fd5b5061017f6105a8565b60405161018c9190611323565b60405180910390f35b3480156101a157600080fd5b506101bc60048036038101906101b7919061133e565b6105b2565b6040516101c991906112f9565b60405180910390f35b3480156101de57600080fd5b506101e76105ff565b6040516101f491906113ad565b60405180910390f35b34801561020957600080fd5b50610212610604565b60405161021f9190611323565b60405180910390f35b34801561023457600080fd5b5061024f600480360381019061024a919061129e565b610620565b60405161025c91906112f9565b60405180910390f35b34801561027157600080fd5b5061028c600480360381019061028791906113c8565b610657565b6040516102999190611323565b60405180910390f35b3480156102ae57600080fd5b506102b761069f565b6040516102c49190611404565b60405180910390f35b3480156102d957600080fd5b506102e26106c5565b6040516102ef9190611323565b60405180910390f35b34801561030457600080fd5b5061030d61075d565b60405161031a91906111e3565b60405180910390f35b34801561032f57600080fd5b5061034a6004803603810190610345919061129e565b6107ef565b60405161035791906112f9565b60405180910390f35b34801561036c57600080fd5b506103876004803603810190610382919061129e565b610866565b60405161039491906112f9565b60405180910390f35b3480156103a957600080fd5b506103c460048036038101906103bf919061141f565b610889565b005b3480156103d257600080fd5b506103ed60048036038101906103e8919061144c565b61092e565b6040516103fa9190611323565b60405180910390f35b606060038054610412906114bb565b80601f016020809104026020016040519081016040528092919081815260200182805461043e906114bb565b801561048b5780601f106104605761010080835404028352916020019161048b565b820191906000526020600020905b81548152906001019060200180831161046e57829003601f168201915b5050505050905090565b6000806104a06109b5565b90506104ad8185856109bd565b600191505092915050565b60006001905080341015610501576040517f08c379a00000000000000000000000000000000000000000000000000000000081526004016104f890611539565b60405180910390fd5b60065461050c6105a8565b111561054d576040517f08c379a0000000000000000000000000000000000000000000000000000000008152600401610544906115cb565b60405180910390fd5b60065461055933610657565b111561059a576040517f08c379a000000000000000000000000000000000000000000000000000000000815260040161059190611683565b60405180910390fd5b6105a5336001610b88565b50565b6000600254905090565b6000806105f4576040517f08c379a00000000000000000000000000000000000000000000000000000000081526004016105eb90611715565b60405180910390fd5b600090509392505050565b600090565b600061060e6105a8565b60065461061b9190611764565b905090565b60008061062b6109b5565b905061064c81858561063d858961092e565b6106479190611798565b6109bd565b600191505092915050565b60008060008373ffffffffffffffffffffffffffffffffffffffff1673ffffffffffffffffffffffffffffffffffffffff168152602001908152602001600020549050919050565b600560009054906101000a900473ffffffffffffffffffffffffffffffffffffffff1681565b6000600560009054906101000a900473ffffffffffffffffffffffffffffffffffffffff1673ffffffffffffffffffffffffffffffffffffffff163373ffffffffffffffffffffffffffffffffffffffff1614610757576040517f08c379a000000000000000000000000000000000000000000000000000000000815260040161074e90611860565b60405180910390fd5b47905090565b60606004805461076c906114bb565b80601f0160208091040260200160405190810160405280929190818152602001828054610798906114bb565b80156107e55780601f106107ba576101008083540402835291602001916107e5565b820191906000526020600020905b8154815290600101906020018083116107c857829003601f168201915b5050505050905090565b6000806107fa6109b5565b90506000610808828661092e565b90508381101561084d576040517f08c379a0000000000000000000000000000000000000000000000000000000008152600401610844906118f2565b60405180910390fd5b61085a82868684036109bd565b60019250505092915050565b6000806108716109b5565b905061087e818585610ce8565b600191505092915050565b8061089333610657565b10156108d4576040517f08c379a00000000000000000000000000000000000000000000000000000000081526004016108cb90611984565b60405180910390fd5b6108de3382610f69565b60003390508073ffffffffffffffffffffffffffffffffffffffff166108fc839081150290604051600060405180830381858888f19350505050158015610929573d6000803e3d6000fd5b505050565b6000600160008473ffffffffffffffffffffffffffffffffffffffff1673ffffffffffffffffffffffffffffffffffffffff16815260200190815260200160002060008373ffffffffffffffffffffffffffffffffffffffff1673ffffffffffffffffffffffffffffffffffffffff16815260200190815260200160002054905092915050565b600033905090565b600073ffffffffffffffffffffffffffffffffffffffff168373ffffffffffffffffffffffffffffffffffffffff161415610a2d576040517f08c379a0000000000000000000000000000000000000000000000000000000008152600401610a2490611a16565b60405180910390fd5b600073ffffffffffffffffffffffffffffffffffffffff168273ffffffffffffffffffffffffffffffffffffffff161415610a9d576040517f08c379a0000000000000000000000000000000000000000000000000000000008152600401610a9490611aa8565b60405180910390fd5b80600160008573ffffffffffffffffffffffffffffffffffffffff1673ffffffffffffffffffffffffffffffffffffffff16815260200190815260200160002060008473ffffffffffffffffffffffffffffffffffffffff1673ffffffffffffffffffffffffffffffffffffffff168152602001908152602001600020819055508173ffffffffffffffffffffffffffffffffffffffff168373ffffffffffffffffffffffffffffffffffffffff167f8c5be1e5ebec7d5bd14f71427d1e84f3dd0314c0f7b2291e5b200ac8c7c3b92583604051610b7b9190611323565b60405180910390a3505050565b600073ffffffffffffffffffffffffffffffffffffffff168273ffffffffffffffffffffffffffffffffffffffff161415610bf8576040517f08c379a0000000000000000000000000000000000000000000000000000000008152600401610bef90611b14565b60405180910390fd5b610c0460008383611140565b8060026000828254610c169190611798565b92505081905550806000808473ffffffffffffffffffffffffffffffffffffffff1673ffffffffffffffffffffffffffffffffffffffff1681526020019081526020016000206000828254610c6b9190611798565b925050819055508173ffffffffffffffffffffffffffffffffffffffff16600073ffffffffffffffffffffffffffffffffffffffff167fddf252ad1be2c89b69c2b068fc378daa952ba7f163c4a11628f55a4df523b3ef83604051610cd09190611323565b60405180910390a3610ce460008383611145565b5050565b600073ffffffffffffffffffffffffffffffffffffffff168373ffffffffffffffffffffffffffffffffffffffff161415610d58576040517f08c379a0000000000000000000000000000000000000000000000000000000008152600401610d4f90611ba6565b60405180910390fd5b600073ffffffffffffffffffffffffffffffffffffffff168273ffffffffffffffffffffffffffffffffffffffff161415610dc8576040517f08c379a0000000000000000000000000000000000000000000000000000000008152600401610dbf90611c38565b60405180910390fd5b610dd3838383611140565b60008060008573ffffffffffffffffffffffffffffffffffffffff1673ffffffffffffffffffffffffffffffffffffffff16815260200190815260200160002054905081811015610e59576040517f08c379a0000000000000000000000000000000000000000000000000000000008152600401610e5090611cca565b60405180910390fd5b8181036000808673ffffffffffffffffffffffffffffffffffffffff1673ffffffffffffffffffffffffffffffffffffffff16815260200190815260200160002081905550816000808573ffffffffffffffffffffffffffffffffffffffff1673ffffffffffffffffffffffffffffffffffffffff1681526020019081526020016000206000828254610eec9190611798565b925050819055508273ffffffffffffffffffffffffffffffffffffffff168473ffffffffffffffffffffffffffffffffffffffff167fddf252ad1be2c89b69c2b068fc378daa952ba7f163c4a11628f55a4df523b3ef84604051610f509190611323565b60405180910390a3610f63848484611145565b50505050565b600073ffffffffffffffffffffffffffffffffffffffff168273ffffffffffffffffffffffffffffffffffffffff161415610fd9576040517f08c379a0000000000000000000000000000000000000000000000000000000008152600401610fd090611d5c565b60405180910390fd5b610fe582600083611140565b60008060008473ffffffffffffffffffffffffffffffffffffffff1673ffffffffffffffffffffffffffffffffffffffff1681526020019081526020016000205490508181101561106b576040517f08c379a000000000000000000000000000000000000000000000000000000000815260040161106290611dee565b60405180910390fd5b8181036000808573ffffffffffffffffffffffffffffffffffffffff1673ffffffffffffffffffffffffffffffffffffffff1681526020019081526020016000208190555081600260008282546110c29190611764565b92505081905550600073ffffffffffffffffffffffffffffffffffffffff168373ffffffffffffffffffffffffffffffffffffffff167fddf252ad1be2c89b69c2b068fc378daa952ba7f163c4a11628f55a4df523b3ef846040516111279190611323565b60405180910390a361113b83600084611145565b505050565b505050565b505050565b600081519050919050565b600082825260208201905092915050565b60005b83811015611184578082015181840152602081019050611169565b83811115611193576000848401525b50505050565b6000601f19601f8301169050919050565b60006111b58261114a565b6111bf8185611155565b93506111cf818560208601611166565b6111d881611199565b840191505092915050565b600060208201905081810360008301526111fd81846111aa565b905092915050565b600080fd5b600073ffffffffffffffffffffffffffffffffffffffff82169050919050565b60006112358261120a565b9050919050565b6112458161122a565b811461125057600080fd5b50565b6000813590506112628161123c565b92915050565b6000819050919050565b61127b81611268565b811461128657600080fd5b50565b60008135905061129881611272565b92915050565b600080604083850312156112b5576112b4611205565b5b60006112c385828601611253565b92505060206112d485828601611289565b9150509250929050565b60008115159050919050565b6112f3816112de565b82525050565b600060208201905061130e60008301846112ea565b92915050565b61131d81611268565b82525050565b60006020820190506113386000830184611314565b92915050565b60008060006060848603121561135757611356611205565b5b600061136586828701611253565b935050602061137686828701611253565b925050604061138786828701611289565b9150509250925092565b600060ff82169050919050565b6113a781611391565b82525050565b60006020820190506113c2600083018461139e565b92915050565b6000602082840312156113de576113dd611205565b5b60006113ec84828501611253565b91505092915050565b6113fe8161122a565b82525050565b600060208201905061141960008301846113f5565b92915050565b60006020828403121561143557611434611205565b5b600061144384828501611289565b91505092915050565b6000806040838503121561146357611462611205565b5b600061147185828601611253565b925050602061148285828601611253565b9150509250929050565b7f4e487b7100000000000000000000000000000000000000000000000000000000600052602260045260246000fd5b600060028204905060018216806114d357607f821691505b602082108114156114e7576114e661148c565b5b50919050565b7f456e6f75676820455448206e6f742073656e7421000000000000000000000000600082015250565b6000611523601483611155565b915061152e826114ed565b602082019050919050565b6000602082019050818103600083015261155281611516565b9050919050565b7f4e6f204d6f72652057616c6d6172745820636f696e732063616e206265206d6960008201527f6e65642100000000000000000000000000000000000000000000000000000000602082015250565b60006115b5602483611155565b91506115c082611559565b604082019050919050565b600060208201905081810360008301526115e4816115a8565b9050919050565b7f596f75722057616c6c657420686173206d696e656420746865206d6178206e7560008201527f6d626572206f6620636f696e7320616c6c6f776564207065722077616c6c657460208201527f2100000000000000000000000000000000000000000000000000000000000000604082015250565b600061166d604183611155565b9150611678826115eb565b606082019050919050565b6000602082019050818103600083015261169c81611660565b9050919050565b7f546869732066756e6374696f6e206f6620455243323020686173206265656e2060008201527f64697361626c656420766961206f766572726964652100000000000000000000602082015250565b60006116ff603683611155565b915061170a826116a3565b604082019050919050565b6000602082019050818103600083015261172e816116f2565b9050919050565b7f4e487b7100000000000000000000000000000000000000000000000000000000600052601160045260246000fd5b600061176f82611268565b915061177a83611268565b92508282101561178d5761178c611735565b5b828203905092915050565b60006117a382611268565b91506117ae83611268565b9250827fffffffffffffffffffffffffffffffffffffffffffffffffffffffffffffffff038211156117e3576117e2611735565b5b828201905092915050565b7f4f6e6c79206f776e65722063616e2061636365737320746869732066756e637460008201527f696f6e2100000000000000000000000000000000000000000000000000000000602082015250565b600061184a602483611155565b9150611855826117ee565b604082019050919050565b600060208201905081810360008301526118798161183d565b9050919050565b7f45524332303a2064656372656173656420616c6c6f77616e63652062656c6f7760008201527f207a65726f000000000000000000000000000000000000000000000000000000602082015250565b60006118dc602583611155565b91506118e782611880565b604082019050919050565b6000602082019050818103600083015261190b816118cf565b9050919050565b7f496e73756666696369656e742062616c616e6365206f6620574d5820746f207360008201527f656c6c206261636b210000000000000000000000000000000000000000000000602082015250565b600061196e602983611155565b915061197982611912565b604082019050919050565b6000602082019050818103600083015261199d81611961565b9050919050565b7f45524332303a20617070726f76652066726f6d20746865207a65726f2061646460008201527f7265737300000000000000000000000000000000000000000000000000000000602082015250565b6000611a00602483611155565b9150611a0b826119a4565b604082019050919050565b60006020820190508181036000830152611a2f816119f3565b9050919050565b7f45524332303a20617070726f766520746f20746865207a65726f20616464726560008201527f7373000000000000000000000000000000000000000000000000000000000000602082015250565b6000611a92602283611155565b9150611a9d82611a36565b604082019050919050565b60006020820190508181036000830152611ac181611a85565b9050919050565b7f45524332303a206d696e7420746f20746865207a65726f206164647265737300600082015250565b6000611afe601f83611155565b9150611b0982611ac8565b602082019050919050565b60006020820190508181036000830152611b2d81611af1565b9050919050565b7f45524332303a207472616e736665722066726f6d20746865207a65726f20616460008201527f6472657373000000000000000000000000000000000000000000000000000000602082015250565b6000611b90602583611155565b9150611b9b82611b34565b604082019050919050565b60006020820190508181036000830152611bbf81611b83565b9050919050565b7f45524332303a207472616e7366657220746f20746865207a65726f206164647260008201527f6573730000000000000000000000000000000000000000000000000000000000602082015250565b6000611c22602383611155565b9150611c2d82611bc6565b604082019050919050565b60006020820190508181036000830152611c5181611c15565b9050919050565b7f45524332303a207472616e7366657220616d6f756e742065786365656473206260008201527f616c616e63650000000000000000000000000000000000000000000000000000602082015250565b6000611cb4602683611155565b9150611cbf82611c58565b604082019050919050565b60006020820190508181036000830152611ce381611ca7565b9050919050565b7f45524332303a206275726e2066726f6d20746865207a65726f2061646472657360008201527f7300000000000000000000000000000000000000000000000000000000000000602082015250565b6000611d46602183611155565b9150611d5182611cea565b604082019050919050565b60006020820190508181036000830152611d7581611d39565b9050919050565b7f45524332303a206275726e20616d6f756e7420657863656564732062616c616e60008201527f6365000000000000000000000000000000000000000000000000000000000000602082015250565b6000611dd8602283611155565b9150611de382611d7c565b604082019050919050565b60006020820190508181036000830152611e0781611dcb565b905091905056fea2646970667358221220b65fe1991b0577f65fdac44ddb90e93f6d2ea6df240e462e17059a68d319af3564736f6c63430008090033",
  "linkReferences": {},
  "deployedLinkReferences": {}
}